{
  "contractName": "Billboard",
  "abi": [
    {
      "constant": true,
      "inputs": [
        {
          "name": "",
          "type": "uint256"
        }
      ],
      "name": "historyOfOwners",
      "outputs": [
        {
          "name": "",
          "type": "address"
        }
      ],
      "payable": false,
      "stateMutability": "view",
      "type": "function"
    },
    {
      "constant": true,
      "inputs": [],
      "name": "slogan",
      "outputs": [
        {
          "name": "",
          "type": "string"
        }
      ],
      "payable": false,
      "stateMutability": "view",
      "type": "function"
    },
    {
      "constant": true,
      "inputs": [],
      "name": "billboardOwner",
      "outputs": [
        {
          "name": "",
          "type": "address"
        }
      ],
      "payable": false,
      "stateMutability": "view",
      "type": "function"
    },
    {
      "constant": false,
      "inputs": [],
      "name": "renounceOwnership",
      "outputs": [],
      "payable": false,
      "stateMutability": "nonpayable",
      "type": "function"
    },
    {
      "constant": true,
      "inputs": [],
      "name": "owner",
      "outputs": [
        {
          "name": "",
          "type": "address"
        }
      ],
      "payable": false,
      "stateMutability": "view",
      "type": "function"
    },
    {
      "constant": true,
      "inputs": [],
      "name": "price",
      "outputs": [
        {
          "name": "",
          "type": "uint256"
        }
      ],
      "payable": false,
      "stateMutability": "view",
      "type": "function"
    },
    {
      "constant": true,
      "inputs": [
        {
          "name": "",
          "type": "address"
        }
      ],
      "name": "moneySpent",
      "outputs": [
        {
          "name": "",
          "type": "uint256"
        }
      ],
      "payable": false,
      "stateMutability": "view",
      "type": "function"
    },
    {
      "constant": false,
      "inputs": [
        {
          "name": "_newOwner",
          "type": "address"
        }
      ],
      "name": "transferOwnership",
      "outputs": [],
      "payable": false,
      "stateMutability": "nonpayable",
      "type": "function"
    },
    {
      "inputs": [
        {
          "name": "billTokenContract",
          "type": "address"
        }
      ],
      "payable": false,
      "stateMutability": "nonpayable",
      "type": "constructor"
    },
    {
      "anonymous": false,
      "inputs": [
        {
          "indexed": false,
          "name": "buyer",
          "type": "address"
        },
        {
          "indexed": false,
          "name": "weiSpent",
          "type": "uint256"
        },
        {
          "indexed": false,
          "name": "newSlogan",
          "type": "string"
        }
      ],
      "name": "LogBillboardBought",
      "type": "event"
    },
    {
      "anonymous": false,
      "inputs": [
        {
          "indexed": true,
          "name": "previousOwner",
          "type": "address"
        }
      ],
      "name": "OwnershipRenounced",
      "type": "event"
    },
    {
      "anonymous": false,
      "inputs": [
        {
          "indexed": true,
          "name": "previousOwner",
          "type": "address"
        },
        {
          "indexed": true,
          "name": "newOwner",
          "type": "address"
        }
      ],
      "name": "OwnershipTransferred",
      "type": "event"
    },
    {
      "constant": false,
      "inputs": [
        {
          "name": "inSlogan",
          "type": "string"
        },
        {
          "name": "tokens",
          "type": "uint256"
        }
      ],
      "name": "buy",
      "outputs": [],
      "payable": false,
      "stateMutability": "nonpayable",
      "type": "function"
    },
    {
      "constant": false,
      "inputs": [
        {
          "name": "newPrice",
          "type": "uint256"
        }
      ],
      "name": "setPrice",
      "outputs": [],
      "payable": false,
      "stateMutability": "nonpayable",
      "type": "function"
    },
    {
      "constant": true,
      "inputs": [],
      "name": "historyLength",
      "outputs": [
        {
          "name": "",
          "type": "uint256"
        }
      ],
      "payable": false,
      "stateMutability": "view",
      "type": "function"
    },
    {
      "constant": false,
      "inputs": [],
      "name": "withdraw",
      "outputs": [
        {
          "name": "",
          "type": "bool"
        }
      ],
      "payable": false,
      "stateMutability": "nonpayable",
      "type": "function"
    }
  ],
  "bytecode": "0x6080604052670de0b6b3a764000060015534801561001c57600080fd5b50604051602080610b39833981016040525160008054600160a060020a0319908116331790915560068054600160a060020a0390931692909116919091179055610ace8061006b6000396000f3006080604052600436106100b95763ffffffff7c01000000000000000000000000000000000000000000000000000000006000350416630ca5c50481146100be5780631281161c1461011b57806324e5eeaa1461015c57806329022519146101e65780633ccfd60b146101fb578063715018a6146102245780638da5cb5b1461023957806391b7f5ed1461024e578063a035b1fe14610266578063b4fce4f41461028d578063f1279c8c146102bb578063f2fde38b146102d0575b600080fd5b3480156100ca57600080fd5b506040805160206004803580820135601f810184900484028501840190955284845261011994369492936024939284019190819084018382808284375094975050933594506102fe9350505050565b005b34801561012757600080fd5b50610133600435610687565b6040805173ffffffffffffffffffffffffffffffffffffffff9092168252519081900360200190f35b34801561016857600080fd5b506101716106bc565b6040805160208082528351818301528351919283929083019185019080838360005b838110156101ab578181015183820152602001610193565b50505050905090810190601f1680156101d85780820380516001836020036101000a031916815260200191505b509250505060405180910390f35b3480156101f257600080fd5b5061013361074a565b34801561020757600080fd5b50610210610766565b604080519115158252519081900360200190f35b34801561023057600080fd5b506101196107dc565b34801561024557600080fd5b50610133610862565b34801561025a57600080fd5b5061011960043561087e565b34801561027257600080fd5b5061027b610918565b60408051918252519081900360200190f35b34801561029957600080fd5b5061027b73ffffffffffffffffffffffffffffffffffffffff6004351661091e565b3480156102c757600080fd5b5061027b610930565b3480156102dc57600080fd5b5061011973ffffffffffffffffffffffffffffffffffffffff60043516610936565b600654604080517fdd62ed3e0000000000000000000000000000000000000000000000000000000081523360048201523060248201529051839273ffffffffffffffffffffffffffffffffffffffff169163dd62ed3e9160448083019260209291908290030181600087803b15801561037657600080fd5b505af115801561038a573d6000803e3d6000fd5b505050506040513d60208110156103a057600080fd5b5051101561040f57604080517f08c379a000000000000000000000000000000000000000000000000000000000815260206004820152601f60248201527f54686520746f6b656e20616c6c6f77616e63652077617320746f6f206c6f7700604482015290519081900360640190fd5b600154811161047f57604080517f08c379a000000000000000000000000000000000000000000000000000000000815260206004820152601c60248201527f54686520746f6b656e732073656e74207765726520746f6f206c6f7700000000604482015290519081900360640190fd5b600654604080517f23b872dd00000000000000000000000000000000000000000000000000000000815233600482015230602482015260448101849052905173ffffffffffffffffffffffffffffffffffffffff909216916323b872dd916064808201926020929091908290030181600087803b1580156104ff57600080fd5b505af1158015610513573d6000803e3d6000fd5b505050506040513d602081101561052957600080fd5b5050600280543373ffffffffffffffffffffffffffffffffffffffff19918216811790925560038054600181019091557fc2575a0e9e593c00f959f8c92f12db2869c3395a3b0502d05e2516446f71f85b01805490911682179055600090815260046020908152604090912080548301905582516105ad9160059190850190610a0a565b507f858aeed554e1ed78a7ef34d723723d2650bf803c94371cb16520a8f0eed11e48338284604051808473ffffffffffffffffffffffffffffffffffffffff1673ffffffffffffffffffffffffffffffffffffffff16815260200183815260200180602001828103825283818151815260200191508051906020019080838360005b8381101561064757818101518382015260200161062f565b50505050905090810190601f1680156106745780820380516001836020036101000a031916815260200191505b5094505050505060405180910390a15050565b600380548290811061069557fe5b60009182526020909120015473ffffffffffffffffffffffffffffffffffffffff16905081565b6005805460408051602060026001851615610100026000190190941693909304601f810184900484028201840190925281815292918301828280156107425780601f1061071757610100808354040283529160200191610742565b820191906000526020600020905b81548152906001019060200180831161072557829003601f168201915b505050505081565b60025473ffffffffffffffffffffffffffffffffffffffff1681565b6000805473ffffffffffffffffffffffffffffffffffffffff16331461078b57600080fd5b6000805460405173ffffffffffffffffffffffffffffffffffffffff90911691303180156108fc02929091818181858888f193505050501580156107d3573d6000803e3d6000fd5b50600190505b90565b60005473ffffffffffffffffffffffffffffffffffffffff16331461080057600080fd5b6000805460405173ffffffffffffffffffffffffffffffffffffffff909116917ff8df31144d9c2f0f6b59d69b8b98abd5459d07f2742c4df920b25aae33c6482091a26000805473ffffffffffffffffffffffffffffffffffffffff19169055565b60005473ffffffffffffffffffffffffffffffffffffffff1681565b60005473ffffffffffffffffffffffffffffffffffffffff1633146108a257600080fd5b806000811161091257604080517f08c379a000000000000000000000000000000000000000000000000000000000815260206004820152601560248201527f5468652070726963652063616e6e6f7420626520300000000000000000000000604482015290519081900360640190fd5b50600155565b60015481565b60046020526000908152604090205481565b60035490565b60005473ffffffffffffffffffffffffffffffffffffffff16331461095a57600080fd5b61096381610966565b50565b73ffffffffffffffffffffffffffffffffffffffff8116151561098857600080fd5b6000805460405173ffffffffffffffffffffffffffffffffffffffff808516939216917f8be0079c531659141344cd1fd0a4f28419497f9722a3daafe3b4186f6b6457e091a36000805473ffffffffffffffffffffffffffffffffffffffff191673ffffffffffffffffffffffffffffffffffffffff92909216919091179055565b828054600181600116156101000203166002900490600052602060002090601f016020900481019282601f10610a4b57805160ff1916838001178555610a78565b82800160010185558215610a78579182015b82811115610a78578251825591602001919060010190610a5d565b50610a84929150610a88565b5090565b6107d991905b80821115610a845760008155600101610a8e5600a165627a7a72305820e6fd54cd9366b5de8d8c3e97eebb68060239b2d8da7a0db57c2d0dbb3a4956840029",
  "source": "pragma solidity ^0.4.24;\n\nimport 'openzeppelin-solidity/contracts/ownership/Ownable.sol';\nimport './BillToken.sol';\n\ncontract Billboard is Ownable {\n    uint256 public price = 1 ether;\n    address public billboardOwner;\n    address[] public historyOfOwners;\n    mapping(address => uint256) public moneySpent;\n    string public slogan;\n    BillToken tokenContract;\n    \n    event LogBillboardBought(address buyer, uint256 weiSpent, string newSlogan);\n\n    constructor(address billTokenContract) public {\n        tokenContract = BillToken(billTokenContract);\n    }\n    \n    modifier onlyPositive(uint256 newPrice) {\n        require(newPrice > 0, \"The price cannot be 0\");\n        _;\n    }\n    \n    function buy(string inSlogan, uint256 tokens) public {\n        require(tokenContract.allowance(msg.sender, address(this)) >= tokens, \"The token allowance was too low\");\n        require(tokens > price, \"The tokens sent were too low\");\n        tokenContract.transferFrom(msg.sender, address(this), tokens);\n        billboardOwner = msg.sender;\n        historyOfOwners.push(msg.sender);\n        moneySpent[msg.sender] += tokens;\n        slogan = inSlogan;\n        \n        emit LogBillboardBought(msg.sender, tokens, inSlogan);\n    }\n    \n    function setPrice(uint256 newPrice) public onlyOwner onlyPositive(newPrice) {\n        price = newPrice;\n    }\n    \n    function historyLength() view public returns(uint256) {\n        return historyOfOwners.length;\n    }\n\n\tfunction withdraw() public onlyOwner returns(bool) {\n\t\towner.transfer(this.balance);\n\t\treturn true;\n\t}\n     \n}",
  "sourcePath": "/Users/georgispasov/Development/LimeLabs/LecturesRepo/academy-lecture-4/contracts/contracts/Billboard.sol",
  "compiler": {
    "name": "solc",
    "version": "0.4.24+commit.e67f0147.Emscripten.clang"
  },
  "schemaVersion": "0.7.1",
  "updatedAt": "2018-08-14T11:57:44.821Z"
}