{
  "contractName": "Billboard",
  "abi": [
    {
      "constant": true,
      "inputs": [
        {
          "name": "",
          "type": "uint256"
        }
      ],
      "name": "historyOfOwners",
      "outputs": [
        {
          "name": "",
          "type": "address"
        }
      ],
      "payable": false,
      "stateMutability": "view",
      "type": "function"
    },
    {
      "constant": true,
      "inputs": [],
      "name": "slogan",
      "outputs": [
        {
          "name": "",
          "type": "string"
        }
      ],
      "payable": false,
      "stateMutability": "view",
      "type": "function"
    },
    {
      "constant": true,
      "inputs": [],
      "name": "billboardOwner",
      "outputs": [
        {
          "name": "",
          "type": "address"
        }
      ],
      "payable": false,
      "stateMutability": "view",
      "type": "function"
    },
    {
      "constant": true,
      "inputs": [],
      "name": "owner",
      "outputs": [
        {
          "name": "",
          "type": "address"
        }
      ],
      "payable": false,
      "stateMutability": "view",
      "type": "function"
    },
    {
      "constant": true,
      "inputs": [],
      "name": "price",
      "outputs": [
        {
          "name": "",
          "type": "uint256"
        }
      ],
      "payable": false,
      "stateMutability": "view",
      "type": "function"
    },
    {
      "constant": true,
      "inputs": [
        {
          "name": "",
          "type": "address"
        }
      ],
      "name": "moneySpent",
      "outputs": [
        {
          "name": "",
          "type": "uint256"
        }
      ],
      "payable": false,
      "stateMutability": "view",
      "type": "function"
    },
    {
      "anonymous": false,
      "inputs": [
        {
          "indexed": false,
          "name": "buyer",
          "type": "address"
        },
        {
          "indexed": false,
          "name": "weiSpent",
          "type": "uint256"
        },
        {
          "indexed": false,
          "name": "newSlogan",
          "type": "string"
        }
      ],
      "name": "LogBillboardBought",
      "type": "event"
    },
    {
      "constant": false,
      "inputs": [
        {
          "name": "inSlogan",
          "type": "string"
        }
      ],
      "name": "buy",
      "outputs": [],
      "payable": true,
      "stateMutability": "payable",
      "type": "function"
    },
    {
      "constant": false,
      "inputs": [
        {
          "name": "newPrice",
          "type": "uint256"
        }
      ],
      "name": "setPrice",
      "outputs": [],
      "payable": false,
      "stateMutability": "nonpayable",
      "type": "function"
    },
    {
      "constant": true,
      "inputs": [],
      "name": "historyLength",
      "outputs": [
        {
          "name": "",
          "type": "uint256"
        }
      ],
      "payable": false,
      "stateMutability": "view",
      "type": "function"
    }
  ],
  "bytecode": "0x6080604052670de0b6b3a7640000600155336000806101000a81548173ffffffffffffffffffffffffffffffffffffffff021916908373ffffffffffffffffffffffffffffffffffffffff1602179055506109708061005f6000396000f300608060405260043610610099576000357c0100000000000000000000000000000000000000000000000000000000900463ffffffff1680631281161c1461009e57806324e5eeaa1461010b578063290225191461019b578063492cc769146101f25780638da5cb5b1461024e57806391b7f5ed146102a5578063a035b1fe146102d2578063b4fce4f4146102fd578063f1279c8c14610354575b600080fd5b3480156100aa57600080fd5b506100c96004803603810190808035906020019092919050505061037f565b604051808273ffffffffffffffffffffffffffffffffffffffff1673ffffffffffffffffffffffffffffffffffffffff16815260200191505060405180910390f35b34801561011757600080fd5b506101206103bd565b6040518080602001828103825283818151815260200191508051906020019080838360005b83811015610160578082015181840152602081019050610145565b50505050905090810190601f16801561018d5780820380516001836020036101000a031916815260200191505b509250505060405180910390f35b3480156101a757600080fd5b506101b061045b565b604051808273ffffffffffffffffffffffffffffffffffffffff1673ffffffffffffffffffffffffffffffffffffffff16815260200191505060405180910390f35b61024c600480360381019080803590602001908201803590602001908080601f0160208091040260200160405190810160405280939291908181526020018383808284378201915050505050509192919290505050610481565b005b34801561025a57600080fd5b506102636106e1565b604051808273ffffffffffffffffffffffffffffffffffffffff1673ffffffffffffffffffffffffffffffffffffffff16815260200191505060405180910390f35b3480156102b157600080fd5b506102d060048036038101908080359060200190929190505050610706565b005b3480156102de57600080fd5b506102e7610874565b6040518082815260200191505060405180910390f35b34801561030957600080fd5b5061033e600480360381019080803573ffffffffffffffffffffffffffffffffffffffff16906020019092919050505061087a565b6040518082815260200191505060405180910390f35b34801561036057600080fd5b50610369610892565b6040518082815260200191505060405180910390f35b60038181548110151561038e57fe5b906000526020600020016000915054906101000a900473ffffffffffffffffffffffffffffffffffffffff1681565b60058054600181600116156101000203166002900480601f0160208091040260200160405190810160405280929190818152602001828054600181600116156101000203166002900480156104535780601f1061042857610100808354040283529160200191610453565b820191906000526020600020905b81548152906001019060200180831161043657829003601f168201915b505050505081565b600260009054906101000a900473ffffffffffffffffffffffffffffffffffffffff1681565b60015434101515156104fb576040517f08c379a000000000000000000000000000000000000000000000000000000000815260040180806020018281038252601a8152602001807f5468652065746865722073656e742077617320746f6f206c6f7700000000000081525060200191505060405180910390fd5b33600260006101000a81548173ffffffffffffffffffffffffffffffffffffffff021916908373ffffffffffffffffffffffffffffffffffffffff16021790555060033390806001815401808255809150509060018203906000526020600020016000909192909190916101000a81548173ffffffffffffffffffffffffffffffffffffffff021916908373ffffffffffffffffffffffffffffffffffffffff1602179055505034600460003373ffffffffffffffffffffffffffffffffffffffff1673ffffffffffffffffffffffffffffffffffffffff16815260200190815260200160002060008282540192505081905550806005908051906020019061060592919061089f565b507f858aeed554e1ed78a7ef34d723723d2650bf803c94371cb16520a8f0eed11e48333483604051808473ffffffffffffffffffffffffffffffffffffffff1673ffffffffffffffffffffffffffffffffffffffff16815260200183815260200180602001828103825283818151815260200191508051906020019080838360005b838110156106a2578082015181840152602081019050610687565b50505050905090810190601f1680156106cf5780820380516001836020036101000a031916815260200191505b5094505050505060405180910390a150565b6000809054906101000a900473ffffffffffffffffffffffffffffffffffffffff1681565b6000809054906101000a900473ffffffffffffffffffffffffffffffffffffffff1673ffffffffffffffffffffffffffffffffffffffff163373ffffffffffffffffffffffffffffffffffffffff161415156107f0576040517f08c379a000000000000000000000000000000000000000000000000000000000815260040180806020018281038252602a8152602001807f54686973207472616e73616374696f6e20776173206e6f742073656e7420627981526020017f20746865206f776e65720000000000000000000000000000000000000000000081525060400191505060405180910390fd5b80600081111515610869576040517f08c379a00000000000000000000000000000000000000000000000000000000081526004018080602001828103825260158152602001807f5468652070726963652063616e6e6f742062652030000000000000000000000081525060200191505060405180910390fd5b816001819055505050565b60015481565b60046020528060005260406000206000915090505481565b6000600380549050905090565b828054600181600116156101000203166002900490600052602060002090601f016020900481019282601f106108e057805160ff191683800117855561090e565b8280016001018555821561090e579182015b8281111561090d5782518255916020019190600101906108f2565b5b50905061091b919061091f565b5090565b61094191905b8082111561093d576000816000905550600101610925565b5090565b905600a165627a7a72305820736014042be39811766d419038c7789f7b7c0fb85c4d415b23cce8953fa79f170029",
  "source": "pragma solidity ^0.4.24;\n\ncontract Ownable {\n    \n    address public owner;\n    \n    constructor() public {\n        owner = msg.sender;\n    }\n    \n    modifier onlyOwner() {\n        require(msg.sender == owner, \"This transaction was not sent by the owner\");\n        _;\n    }\n    \n}\n\ncontract Billboard is Ownable {\n    uint256 public price = 1 ether;\n    address public billboardOwner;\n    address[] public historyOfOwners;\n    mapping(address => uint256) public moneySpent;\n    string public slogan;\n    \n    event LogBillboardBought(address buyer, uint256 weiSpent, string newSlogan);\n    \n    modifier onlyPositive(uint256 newPrice) {\n        require(newPrice > 0, \"The price cannot be 0\");\n        _;\n    }\n    \n    function buy(string inSlogan) public payable {\n        require(msg.value >= price, \"The ether sent was too low\");\n        billboardOwner = msg.sender;\n        historyOfOwners.push(msg.sender);\n        moneySpent[msg.sender] += msg.value;\n        slogan = inSlogan;\n        \n        emit LogBillboardBought(msg.sender, msg.value, inSlogan);\n    }\n    \n    function setPrice(uint256 newPrice) public onlyOwner onlyPositive(newPrice) {\n        price = newPrice;\n    }\n    \n    function historyLength() view public returns(uint256) {\n        return historyOfOwners.length;\n    }\n    \n}",
  "sourcePath": "/Users/georgispasov/Development/LimeLabs/academy-lecture-2/contracts/Billboard.sol",
  "compiler": {
    "name": "solc",
    "version": "0.4.24+commit.e67f0147.Emscripten.clang"
  },
  "schemaVersion": "2.0.1",
  "updatedAt": "2018-07-10T11:02:16.797Z"
}